:020000040800F2
:1000000050070020890100087D180008C11600086B
:10001000791800089D02000875190008000000000A
:100020000000000000000000000000006919000846
:10003000A102000800000000811800086D190008E6
:10004000A3010008A3010008A3010008A301000800
:10005000A3010008A3010008A3010008A3010008F0
:10006000A3010008A3010008A3010008A3010008E0
:10007000A3010008A3010008A3010008A3010008D0
:10008000A3010008A3010008A3010008A3010008C0
:10009000A3010008A3010008A3010008A3010008B0
:1000A000A3010008A3010008A3010008A3010008A0
:1000B000A3010008A3010008A3010008A301000890
:1000C000A3010008A3010008A3010008A301000880
:1000D000A3010008A3010008A3010008A301000870
:1000E000A3010008A3010008A301000800F002F822
:1000F00000F03AF80AA090E8000C82448344AAF188
:100100000107DA4501D100F02FF8AFF2090EBAE885
:100110000F0013F0010F18BFFB1A43F0010318473B
:1001200084230000A4230000103A24BF78C878C1BB
:10013000FAD8520724BF30C830C144BF04680C60ED
:10014000704700000023002400250026103A28BF35
:1001500078C1FBD8520728BF30C148BF0B60704739
:100160001FB51FBD10B510BD00F05DF81146FFF7BB
:10017000F7FF02F0C1F800F07BF803B4FFF7F2FFDD
:1001800003BC00F083F80000094880470948004795
:10019000FEE7FEE7FEE7FEE7FEE7FEE7FEE7FEE737
:1001A000FEE7FEE704480549054A064B7047000094
:1001B00071190008ED0000085001002050070020D0
:1001C000500300205003002040EA010310B59B07B4
:1001D0000FD1042A0DD310C808C9121F9C42F8D0B1
:1001E00020BA19BA884201D9012010BD4FF0FF3062
:1001F00010BD1AB1D30703D0521C07E0002010BD78
:1002000010F8013B11F8014B1B1B07D110F8013B03
:1002100011F8014B1B1B01D1921EF1D1184610BDE4
:10022000704770477047754600F02CF8AE460500E1
:100230006946534620F00700854618B020B5FFF701
:10024000B1FFBDE820404FF000064FF000074FF02F
:1002500000084FF0000BAC46ACE8C009ACE8C009A0
:10026000ACE8C009ACE8C00921F007018D46704731
:1002700010B50446AFF300802046BDE81040FFF7FC
:100280007CBF000000487047100000200149182082
:10029000ABBEFEE72600020070470000FEE700004C
:1002A00070470000EFF3108072B600BFFEE7000059
:1002B000B0B5044600F02AF9054640F20000C2F24B
:1002C00000000078611C18BF044400BF00F01EF954
:1002D000401BA042FAD3B0BD2DE9F04F82B00E68AA
:1002E000002E00F0038140F20C4C41F200424FF628
:1002F000FF7EC4F2010CC4F2010204270024012392
:10030000C1F2100E4FF0000A4FF00009904208BFF2
:100310000327009745E000BF012704F00C030F22DC
:100320009A402BEA020207FA03F34FEA9A051A43AE
:1003300046F82520D1F804B040F20045C4F201058A
:100340005FEACB322A6854BF22EA080242EA080276
:100350002A606A685FEA8B3354BF22EA080242EAE5
:1003600008026A605FEACB23AA6854BF22EA080247
:1003700042EA08025FEA8B23AA60DCF800204FF013
:10038000010354BF22EA080242EA0802CCF8002026
:100390000E680AF1010A36FA0AF204F1040400F0C8
:1003A000A58003FA0AF816EA080FF1D04E687645E0
:1003B00012DC122E56D8DFE806F0350B45495555AC
:1003C00055555555555555555555554D510000BF29
:1003D000D1F80C9046E000BF4FF6FF72C1F2210247
:1003E00096420FDC0022C1F2110296421AD000227E
:1003F000C1F21202964215D00022C1F221029642A9
:1004000010D02FE00022C1F2220296420AD0002230
:10041000C1F23102964205D00022C1F23202964268
:1004200020D100BF8A684AB1012A14BFC0F81480E5
:10043000C0F810804FF0080914E000BF4FF0040925
:1004400010E000BFCA6802F108090BE04FF0000994
:1004500008E000BFCA6802F1040903E0CA6802F1BB
:100460000C0900BF22460646BAF1080F24BF203A05
:10047000043637680F25954027EA050509FA02F288
:100480002A433260CA79D2067FF582AF41F218035F
:10049000C4F202031A6842F001021A601A6802F0FC
:1004A00001020192019A40F20042C4F20102A2F557
:1004B0007E762AF0030256F802B040F60002C4F23B
:1004C0000102904210D040F60042C4F20102904274
:1004D0003FF422AF41F20002C4F20102009F9042B9
:1004E00008BF022719E700BF002716E702B0BDE8E2
:1004F000F08F00008068084018BF0120704700009E
:10050000002A08BF090401617047000040F224106E
:10051000C2F200000068704740F2000040F224116F
:10052000C2F20000C2F2000100780A6810440860BC
:100530007047000080B542F20000C4F2020001687A
:1005400041F010010160032000F07AF80F2000F064
:1005500005F800F027F8002080BD000070B540F2DB
:100560000006C2F2000640F208013278C2F2000131
:100570004FF47A730968B3FBF2F20446B1FBF2F16F
:10058000084600F0EFFE0F2C4FF0010508D838B9EF
:100590004FF0FF3021460022002500F025F874605E
:1005A000284670BD82B041F21800C4F20200016812
:1005B000022241F001010160016801F00101019195
:1005C0000199416841F080514160406800F08050DD
:1005D000009000980420C4F20100016862F31A61DF
:1005E000016002B07047000010B54EF60C5CCEF210
:1005F000000CDCF80030C3F3022E8EF00704042C4C
:1006000028BF0424BEF103034FF0FF3E0EFA04F4AA
:1006100038BF0023A14399400EFA03F39A431143D4
:1006200000F00F0200F160430901043A03F564434E
:100630006244002848BF02F10C03197010BD00008D
:100640004EF60C51CEF200010A684FF6FF031A4035
:1006500060F30A2242F0806040F0FD70086070474D
:100660002DE9F04381B0002800F0858042F20008B7
:10067000C4F202080446D8F800000D4600F0070056
:1006800088420CD2D8F8000020F007002843C8F8B0
:100690000000D8F8000000F00700A8426BD12068E5
:1006A00041F204098107C4F2020917D5410705D5B3
:1006B000D9F8001041F4E061C9F80010010705D530
:1006C000D9F8001041F46051C9F80010D9F80010B1
:1006D000A26821F0F0011143C9F80010C00741D110
:1006E000D8F8000000F00700A8420CD9D8F80000A4
:1006F00020F007002843C8F80000D8F8000000F0F8
:100700000700A84237D12068410707D5D9F8001063
:10071000E26821F4E0611143C9F80010000708D530
:10072000D9F80000216920F4605040EAC100C9F8FE
:100730000000D9F8002002F00C00082841F2002047
:10074000C0F27A0050D142F29243C2F38341C0F624
:100750000003595CD2033BD440F60010C0F23D00C8
:10076000484341E0606802280AD001282AD159F89C
:10077000041C890308D4012001B0BDE8F08300BF48
:1007800059F8041C8901F6D5D9F8001021F00301AD
:100790000843C9F80000FFF7B9FE064641F2883762
:1007A000D9F80000616800F00C00B0EB810F97D021
:1007B000FFF7ACFE801BB842F2D9032001B0BDE8C0
:1007C000F08300BF59F8041C8907D4D5DCE700BFCB
:1007D000D9F8002042F28043C2F34042C0F6000341
:1007E0009A5C4843B0FBF2F0D9F8001042F2824222
:1007F000C1F30311C0F60002515C40F2080220FA76
:1008000001F140F20400C2F200000068C2F20002EE
:100810001160FFF7A3FE002001B0BDE8F0830000E7
:100820002DE9F04182B0002868D00446007841F2FA
:100830000006C007C4F2020625D0706800F00C0064
:1008400004281BD0706800F00C00082802D17068E2
:10085000C00313D46068002800F06881B0F5A02FB1
:1008600000F07C81B0F5803F00F07C81306820F49E
:1008700080303060306820F4802076E1306880037A
:1008800001D56068D0B32078800718D5706810F063
:100890000C0F07D0706800F00C0008286ED170684B
:1008A000C0036BD43068800702D52069012825D1A8
:1008B0003068616920F0F80040EAC10030602078BB
:1008C00000071FD42078400732D4E56995B17068DD
:1008D00000F00C00082840F08F80012D0ED07068C9
:1008E000216A00F480328A4208D1616A00F47010F3
:1008F000884203D1002002B0BDE8F081012002B09F
:10090000BDE8F081A069002862D00020C4F2422036
:100910000121C0F88014FFF7F9FD0546706A8007D1
:1009200000F18C80FFF7F2FD401B0228F6D92AE186
:10093000F06910F0805808D1F06940F08050F06103
:10094000F06900F080500090009847F20007C4F270
:1009500000073868C00529D4386840F480703860D2
:10096000FFF7D4FD054600BF3868C0051ED4FFF769
:10097000CDFD401B6428F7D905E100BF20690028A0
:1009800040F20000C4F2422000F0828001210160A8
:10099000FFF7BCFD054600BF306880073FF588AF14
:1009A000FFF7B4FD401B0228F6D9ECE0E068002810
:1009B00000F08080052800F09780012800F09880E2
:1009C000306A20F001003062306A20F0040092E0CA
:1009D0000020C4F242200021C0F88014FFF796FDE9
:1009E000054600BF706A80077FF56CAFFFF78EFD8C
:1009F000401B0228F6D9C6E00027C4F24227002097
:100A00003866FFF783FD022D05460BD13068800163
:100A100040F1BE80FFF77AFD401B02284FF0030033
:100A2000F4D968E7306880017FF564AFFFF76EFDA9
:100A3000401B02284FF00300F4D95CE740F20800A5
:100A4000C2F20000006844F6D351C1F26201A0FB7B
:100A50000101480A019000BF00BF0198411E002813
:100A600001913FF42FAF00BF0198411E0028019172
:100A70003FF428AF00BF0198411E002801913FF4C8
:100A800021AF00BF0198411E00280191E4D119E770
:100A900000210160FFF73AFD054600BF306880077E
:100AA0007FF50DAFFFF732FD401B02284FF003002A
:100AB000F4D920E7306A20F001003062306A20F07B
:100AC00004003062FFF722FD054641F2883700BF7F
:100AD000306A800720D5FFF719FD401BB8424FF060
:100AE0000300F5D907E700BF306A40F00400306228
:100AF000306A40F001003062FFF708FD054641F220
:100B0000883700BF306A800706D4FFF7FFFC401B20
:100B1000B842F7D937E000BFB8F1000F7FF4D5AE87
:100B2000F06920F08050F061CFE600BF306820F41B
:100B300080303060306820F480203060FFF7E6FCC1
:100B4000054600BF306880037FF59DAEFFF7DEFCF1
:100B5000401B64284FF00300F4D9CCE6306840F421
:100B600080203060306840F480303060FFF7CEFC89
:100B7000054600BF306880033FF585AEFFF7C6FC31
:100B8000401B6428F6D9032002B0BDE8F08100BF05
:100B9000206AB0F5803F05D17168A26821F4003168
:100BA000114371607168626A21F474111143084342
:100BB000706001203866FFF7A9FC044630688001A8
:100BC0003FF598AEFFF7A2FC001B02284FF0030090
:100BD000F4D990E670B538B10446406A30B10020CF
:100BE000206104F1140007E0012070BD6068B0F5D9
:100BF000827F03D004F11C00002101600026A66260
:100C000094F8510020B9204684F8506000F038F87C
:100C1000022084F8510094E8071001F482710368FF
:100C200002F4044223F040030360236911440CF4EE
:100C30000062114403F002026369114403F00102EF
:100C4000A369E569114403F40072114405F0380208
:100C5000256A114405F08002A56A114305F400528B
:100C600011430160042101EA13414160C16921F48B
:100C70000061C1610120666584F85100304670BD95
:100C800070B586B040F60004C4F20104006804F5B3
:100C9000205100268842049602D006B070BD00BFE5
:100CA00041F21800C4F20200016802AD41F4805123
:100CB0000160016801F4805101910199016841F0DE
:100CC000040101600068294600F0040001900198C9
:100CD000A020029002200390032005902046FFF7F9
:100CE000FBFA4020CDE90206204629460496FFF78C
:100CF000F3FA06B070BD00002DE9F04381B0044660
:100D000040681D461746B0F5827F0E4601D1A068A7
:100D1000E0B394F85000012804D1022001B0BDE8EE
:100D2000F08300BF4FF0010984F85090FFF7EEFB0D
:100D300094F85110012927D18046002E4FF0010070
:100D400018BF002F00F0C9800420002184F8510052
:100D50006165A663A787E7872163A186E186A2680C
:100D60002068B2F5004F216461644BD001684906E8
:100D700053D5E168E08F002957D0002800F0868025
:100D8000681C1CD12DE000BF0220A6E0042084F8DE
:100D900051002046314632463B46009500F090F91E
:100DA00001B0BDE8F08300BFC068A16B21F8020B61
:100DB000A163E08F0138E087E08F002866D02068CB
:100DC0008168C907F0D1FFF7A1FBA0EB0800A8429A
:100DD000F2D3032081E000BFFFF798FBE08F0028EB
:100DE00054D020688168C907F6D0C068A16B21F88B
:100DF000020BA163E08F0138E087E08F0028F0D17B
:100E000044E000BF016821F040010160016821F465
:100E10008041016001684906ABD4016841F040019E
:100E20000160E168E08F0029A7D178B3681C0CD17C
:100E30001CE000BF007BA16B0870A06B0130A063B9
:100E4000E08F0138E087E08F00B320688168C90730
:100E5000F0D1FFF75BFBA0EB0800A842F3D303201F
:100E60003BE000BFFFF752FBE08F78B1206881685C
:100E7000C907F7D0007BA16B0870A06B0130A0639D
:100E8000E08F0138E087E08F0028EFD16068B0F58F
:100E9000827F11D1A068B0F5004F02D0B0F5806F0D
:100EA0000AD12168B0F5806F0A6822F040020A601A
:100EB00002D12046012101E0204680212A464346F6
:100EC00000F0E0FC28B1606D40F02000606520205B
:100ED0006065606D002818BF0120002184F85190E2
:100EE00084F8501001B0BDE8F08300002DE9F04314
:100EF00081B0044690F85000012803D1022001B0CF
:100F0000BDE8F0834FF001091D4616460F4684F8F0
:100F10005090FFF7FBFA94F85110012944D1804614
:100F2000002F4FF0010018BF002E00F0C0800320FA
:100F3000002184F8510061652763A686E686A163D7
:100F4000A187E187A0682164B0F5004F2068616443
:100F500007D1016821F040010160016841F480413E
:100F600001600168490603D4016841F04001016055
:100F70006168731EE268B1FA81F1B3FA83F349093B
:100F80005B09B2F5006F41EA03013BD131B137F89B
:100F9000021BC1602763E08E0138E086E08E0028E6
:100FA0006AD0681C0DD11CE0022080E0216B31F872
:100FB000022BC2602163E08E0138E086E08E0028BB
:100FC0005AD0206881688907F0D4FFF79FFAA0EB18
:100FD0000800A842F2D338E0FFF798FAE08E002824
:100FE0004AD0206881688907F6D5216B31F8022B39
:100FF000C2602163E08E0138E086E08E0028F0D1E7
:101000003AE000BF39B139780173206B01302063B9
:10101000E08E0138E086E08E70B3681C0BD11BE0D7
:10102000216B09780173206B01302063E08E013859
:10103000E086E08E00B3206881688907F0D4FFF76E
:1010400065FAA0EB0800A842F3D303202FE000BF0D
:10105000FFF75CFAE08E78B1206881688907F7D5E0
:10106000216B09780173206B01302063E08E013819
:10107000E086E08E0028EFD1204680212A464346B4
:1010800000F000FC28B1606D40F020006065202079
:101090006065A06838B9002000902068C1680091A0
:1010A000806800900098606D002818BF0120002122
:1010B00084F8519084F8501001B0BDE8F08300002E
:1010C0002DE9F04381B0044690F85000012803D187
:1010D000022001B0BDE8F08301201E4615460F46F0
:1010E00084F85000FFF712FA94F851108146012954
:1010F0000CD06068B0F5827F40F0A080A068002826
:101100004FF0020008BF042940F09980002F4FF0F3
:10111000010018BF002D00F09280002E00F08F809B
:1011200094F85100002104281CBF052084F85100C8
:101130006165A563E687A6872763E6862068A6869D
:10114000216461640168490603D4016841F04001EB
:1011500001606168731EE268B1FA81F1B3FA83F34A
:10116000DDF8208049095B09B2F5006F41EA03010F
:101170006ED131B137F8021BC1602763E08E0138B0
:10118000E086012518F1010031D101E0FFF7BEF939
:10119000E08E18B9E08F002800F0C28020688168D6
:1011A00089070CD5E18E51B1012D08D1216B0025A5
:1011B00031F8022BC2602163E18E0139E18681683A
:1011C000C907E3D0E18F0029E0D0C068A16B0125F9
:1011D00021F8020BA163E08F0138E087D6E700BF5A
:1011E000FFF794F9A0EB0900404580F0A980E08E5C
:1011F00018B9E08F002800F0938020688168890783
:101200000CD5E18E51B1012D08D1216B002531F8AB
:10121000022BC2602163E18E0139E1868168C90732
:10122000DED0E18F0029DBD0C068A16B012521F859
:10123000020BA163E08F0138E087D1E70220012192
:1012400084F85110002184F8501001B0BDE8F083FB
:1012500039B139780173206B01302063E08E013899
:10126000E086012518F1010032D101E0FFF74EF9C7
:10127000E08E10B9E08F002852D02068816889077D
:101280000ED5E18E61B1012D0AD1216B00250978BF
:101290000173216B206801312163E18E0139E18600
:1012A0008168C907E2D0E18F0029DFD0C068A16B57
:1012B00001250870A06B0130A063E08F0138E08742
:1012C000D4E700BFFFF722F9A0EB0900404539D26F
:1012D000E08E08B9E08F18B32068816889070ED5C1
:1012E000E18E61B1012D0AD1216B002509780173CE
:1012F000216B206801312163E18E0139E18681682B
:10130000C907DFD0E18F0029DCD0C068A16B0125BF
:101310000870A06B0130A063E08F0138E087D1E74F
:101320002046802142464B4600F0ACFA60B1606D29
:1013300040F0200060652020606501207FE700BF4D
:1013400003207CE703207AE7A06800284FF0000024
:101350007FF475AF00902168CA6800928968009197
:1013600000996CE7411E0020B0EB116F1CBF0120FB
:1013700070474EF21002CEF2000251604EF6235139
:10138000CEF20001F0230B700721906011607047CE
:1013900010B590F83C20012A4FF0020233D080F8BB
:1013A0003D200268D2F804E0D2F808C00C682EF0A4
:1013B0007003234340F2FF74C4F20004A24253605E
:1013C0000ADCB2F1804F13D040F20043C4F20003B4
:1013D0009A420DD011E000BF42F60043C4F201036F
:1013E0009A4205D040F60003C4F200039A4204D1A9
:1013F00049682CF08003194391600121002280F894
:101400003D1080F83C20104610BD0000002804BFAD
:101410000120704710B5044690F83D0028B900201F
:1014200084F83C00204600F067F8022084F83D0074
:10143000206840F2FF730268C4F2000342F6004CD9
:101440009842C4F2010C15DCB0F1804F1AD040F282
:101450000041C4F20001884214D0984218DCB0F177
:10146000804F1DD040F20041C4F20001884217D0E5
:101470001AE000BF604505D040F60001C4F200014B
:101480008842EAD1A16822F070020A439842E6DD60
:10149000604505D040F60001C4F20001884203D146
:1014A000216922F440720A43A36922F08001D4F832
:1014B00004E0E268194360450160C262C0F828E0B8
:1014C00002D16169CCF8301001214161002084F81B
:1014D000461084F83E1084F83F1084F8401084F8D9
:1014E000411084F8421084F8431084F8441084F8C2
:1014F000451084F83D1010BD81B0006842F60041EF
:10150000C4F20101884201D001B0704741F21800D5
:10151000C4F20200016841F400610160006800F457
:1015200000600090009801B07047000080B590F80E
:101530003C20012A4FF0020200F0BF8080F83D20DD
:10154000D0F800C04FF67772DCF8083023EA0202C8
:10155000CCF808200B683F2B1CDD5F2B20DD602BB7
:1015600050D0B3F5005F6DD0702B40F0A080D1E972
:1015700001E3C968DCF8082043EA0E0322F47F4245
:1015800043EA01211143CCF80810DCF8081041F0BF
:1015900077018AE01F2B29DC63B3102B2AD086E069
:1015A000402B63D0502B40F08280D1F804E0C96812
:1015B000DCF82030DCF8202022F00102CCF82020DA
:1015C000DCF8182022F0F00242EA011123F00A02AE
:1015D00042EA0E02CCF81810CCF82020DCF80810F3
:1015E00041F0570121F020015FE000BF202B01D026
:1015F000302B5CD1DCF8081021F07001194341F068
:10160000070152E0D1F804E0C968DCF8203023F08B
:101610001003CCF82030DCF81830DCF8202023F45C
:10162000704322F0A00243EA013142EA0E12CCF8E4
:101630001810CCF82020DCF8081041F0670121F0E8
:10164000100132E0D1E901E3C968DCF8082043EA7F
:101650000E0322F47F4243EA01211143CCF8081023
:10166000DCF8081041F480411FE000BFD1F804E02D
:10167000C968DCF82030DCF8202022F00102CCF828
:101680002020DCF8182022F0F00242EA011123F0B9
:101690000A0242EA0E02CCF81810CCF82020DCF83E
:1016A000081041F0470121F03001CCF80810012169
:1016B000002280F83D1080F83C20104680BD0000DC
:1016C000FEE700002DE9F04F85B041F21800C4F2AA
:1016D0000200016840F6000441F010010160016859
:1016E000C4F2010401F0100101910199016804F5AF
:1016F000006641F0200101600168002201F0200134
:101700000191019901684FF4005741F00401016013
:1017100001684FF0000801F004010191019901688E
:1017200041F00801016000684FF4005100F008002A
:10173000019001983046FEF7E3FE20460421012285
:101740004FF00109FEF7DCFE204610210022FEF7D3
:10175000D7FE04F58065284640F20741002240F29A
:10176000074AFEF7CDFECDE9017901AF4FF0020B3C
:1017700030463946CDF80C80CDF810B0FEF7ACFD00
:10178000032001A981E8010320463946FEF7A4FDA4
:101790001420CDE9010920463946CDE9038BFEF737
:1017A0009BFD28463946CDE901A9CDE9038BFEF71B
:1017B00093FD05B0BDE8F08F80B540F2800043F2A4
:1017C0000001C2F20000C4F201014FF48272002352
:1017D00080E80E0000F114014FF4007C4FF0100E71
:1017E00081E808500A21C0E90333C0E90833C0E9A1
:1017F0000A31FFF7EFF9002808BF80BDBDE880403F
:10180000FEF750BD80B586B040F2D80042F60042E7
:101810000021C2F20000C4F201024FF6FF730591ED
:10182000CDE90311CDE90011C0E90021C0E902139F
:10183000C0E904118161FFF7E9FD002818BFFEF738
:1018400031FD4FF48050029040F2D800C2F2000007
:1018500002A9FFF76BFE002818BFFEF723FD40F238
:10186000D800C2F200006946FFF792FD002818BFB9
:10187000FEF718FD06B080BDFEE70000FEE70000A1
:10188000704700002DE9F04182B01E4690460D469B
:101890000446FEF73BFE301A00EB0807FEF736FE63
:1018A00040F20801C2F200010968C1F3CB3179436B
:1018B000019121688A682A40AA4227D1064618F178
:1018C00001001FD0FEF722FE801BB84222D20198F1
:1018D00001990028A1F1010101912168896808BFDF
:1018E000074601EA0500A842ECD00FE088682840CE
:1018F000A8420BD188682840A84207D188682840B0
:10190000A84203D188682840A842EFD0002002B046
:10191000BDE8F081D4E900014268B1F5827F22F090
:10192000E00242600AD1A168B1F5004F02D0B1F5E2
:10193000806F03D1016821F040010160A16AB1F517
:10194000005F07D1016821F400510160016841F492
:1019500000510160012084F85100002084F85000FB
:10196000032002B0BDE8F08170470000FEF7D4BD4F
:1019700070470000FEE700002DE9F04385B040F21B
:101980002816C2F2000696F827100546012906D14E
:101990000120FEF78DFC96F827000128F8D040F6CC
:1019A00000090120C4F2010986F8270000F066FB57
:1019B0003069102100FB05F7484600224FF000086F
:1019C000FEF79EFD40F280050620C2F200058DF86C
:1019D000090064240DF1090102AA2846012300949C
:1019E000FFF76EFB484610210122FEF789FD01201A
:1019F000FEF75EFC484610210022FEF781FD202004
:101A00008DF80B000DF10B010DF10A0228460123A0
:101A10000094FFF755FB307809280DD3380E8DF868
:101A20000D0040F28000C2F200000DF10D0103AA8A
:101A300001230094FFF744FB40F28005380CC2F20A
:101A400000058DF80F000DF10F010DF10E02284673
:101A500001230094FFF734FB380A8DF811000DF1D3
:101A6000110104AA284601230094FFF729FB0DF178
:101A700013010DF11202284601238DF81370009412
:101A8000FFF71EFB484610210122FEF739FD00F04A
:101A9000F5FA0120FEF70CFC86F8278005B0BDE8BA
:101AA000F08300002DE9F04784B040F22817C2F21D
:101AB0000007012087F82700FEF728FD632806D8D5
:101AC0000120FEF7F5FBFEF721FD6428F8D340F670
:101AD0000004C4F20104204610210122FEF710FD8B
:101AE0006420FEF7E5FB00F0D7F81138C0B24FF0E4
:101AF00000080F284FF0000505D848F2FF11C1403B
:101B0000C90707D10025284687F8278004B0BDE81B
:101B1000F08700BF4CA1095C4FA252F82000397039
:101B20004FF4807179814FF48051020103024FF428
:101B300080368501C7E90331C7E90526C7E90705EE
:101B400000F0D8F9204610210022FEF7D9FC40F21F
:101B500080060520C2F200068DF805004FF06409EA
:101B60000DF1050101AA30460123CDF800900125B1
:101B7000FFF7A6FA4FF0A50A0DF107010DF10602D5
:101B8000304601238DF807A0CDF80090FFF798FAB2
:101B90009DF80600102187F8240020460122FEF758
:101BA000AFFC204610210022FEF7AAFC35208DF85C
:101BB00009000DF1090102AA30460123CDF8009079
:101BC000FFF77EFA0DF10B010DF10A0230460123F9
:101BD0008DF80BA0CDF80090FFF772FA9DF80A007F
:101BE000102187F8250020460122FEF789FC2046B7
:101BF00010210022FEF784FC15208DF80D000DF158
:101C00000D0103AA30460123CDF80090FFF758FAE2
:101C10000DF10F010DF10E02304601238DF80FA0DA
:101C2000CDF80090FFF74CFA9DF80E00102187F8D0
:101C3000260020460122FEF763FC284687F827800D
:101C400004B0BDE8F08700BF0102030405060708E1
:101C5000090A0A0A0A0A0A0A02000000040000002F
:101C600008000000100000002000000040000000FC
:101C700080000000000100000002000000040000DD
:101C80000004000000040000000400000004000044
:101C900000040000000400002DE9F04383B040F68A
:101CA0000008C4F20108404610210022FEF728FC7B
:101CB00040F280059F20C2F200058DF805006426E1
:101CC0000DF1050101AA284601230096FFF7F8F956
:101CD000A5240DF107010DF10602284601238DF818
:101CE00007400096FFF7ECF99DF806900DF1090109
:101CF00002AA284601238DF809400096FFF7E0F973
:101D00009DF808700DF10B010DF10A022846012320
:101D10008DF80B400096FFF7D3F99DF80A40404636
:101D200010210122FEF7ECFB380240EA094040F2A4
:101D300020112044C2F20001086003B0BDE8F08326
:101D40002DE9F04F85B040F22815C2F20005174684
:101D500095F827201C460E46012A814607D100BF70
:101D60000120FEF7A5FA95F827000128F8D040F6E3
:101D70000000B5F80A800121C4F2010085F827109F
:101D80001021002208FB06764FF0000AFEF7B8FB90
:101D90000B208DF8090040F280004FF0640BC2F276
:101DA00000000DF1090102AA0123CDF800B0FFF7F0
:101DB00087F9287809280FD3300E8DF80B0040F2F0
:101DC0008000C2F200000DF10B010DF10A020123A7
:101DD000CDF800B0FFF774F9601E404528BF4446B7
:101DE000E019404588BFA8EB070440F28007300C9B
:101DF000C2F200078DF80D000DF10D0103AA38465F
:101E00000123CDF800B0FFF75BF9300A8DF80F0021
:101E10000DF10F010DF10E0238460123CDF800B08F
:101E2000FFF74EF90DF1110104AA384601238DF890
:101E30001160CDF800B0FFF743F90DF113010DF17A
:101E40001202384601238DF813A0CDF800B0FFF739
:101E500037F9A2B2384649466423FEF74DFF40F6F3
:101E60000000C4F2010010210122FEF749FB01200D
:101E7000FEF71EFA85F827A005B0BDE8F08F000038
:101E80002DE9F04140F22817C2F200071D463B69D8
:101E900093422DD98046681E984228BF1D46A81837
:101EA000984288BF9D1A78895943B2FBF0F3B1FB81
:101EB000F0F103FB10265C184046214632462B46C3
:101EC000FFF73EFF7889801B2D1A012DB8BFBDE8B2
:101ED000F08108EB000600BF0134304621460022A5
:101EE0002B46FFF72DFF78892D1A002D0644F3DCD1
:101EF000BDE8F0812DE9F04784B040F60008C4F257
:101F00000108404610210022FEF7FAFA40F280054F
:101F10004B20C2F200058DF80B004FF064090DF163
:101F20000B010DF10A0228460123CDF80090FFF7BE
:101F3000C7F80DF10D0603AFA524284631463A46F1
:101F400001238DF80D40CDF80090FFF7B9F8284631
:101F500031463A4601238DF80D40CDF80090FFF749
:101F6000AFF8284631463A4601238DF80D40CDF8AA
:101F70000090FFF7A5F8284631463A4601238DF830
:101F80000D40CDF80090FFF79BF80DF10F0A0DF111
:101F90000E07284651463A4601238DF80F40CDF8EA
:101FA0000090FFF78DF89DF80E0040F22816C2F25F
:101FB00000067070284651463A4601238DF80F40BE
:101FC000CDF80090FFF77CF89DF80E005146B070F8
:101FD00028463A4601238DF80F40CDF80090FFF7D0
:101FE0006FF89DF80E005146F07028463A460123DE
:101FF0008DF80F40CDF80090FFF762F89DF80E00C5
:102000005146307128463A4601238DF80F40CDF8ED
:102010000090FFF755F89DF80E0051467071284664
:102020003A4601238DF80F40CDF80090FFF748F8AD
:102030009DF80E005146B07128463A4601238DF8AE
:102040000F40CDF80090FFF73BF89DF80E00514689
:10205000F07128463A4601238DF80F40CDF80090E4
:10206000FFF72EF89DF80E00102130724046012235
:10207000FEF746FA04B0BDE8F08700002DE9F0470E
:1020800082B040F600080120C4F20108FEF710F902
:10209000404610210022FEF733FA40F2800A052064
:1020A000C2F2000A8DF805004FF064090DF1050138
:1020B00001AA50460123CDF80090FFF701F840F245
:1020C0002815A5240DF107060DF10607C2F200053B
:1020D000504631463A4601238DF80740CDF800902E
:1020E000FEF7EEFF9DF8060085F824000120FEF7BC
:1020F000DFF895F82400C007EAD1404610210122FC
:10210000FEF7FEF902B0BDE8F08700002DE9F04FC0
:1021100085B040F22815C2F20005924695F82720B6
:1021200099460E46012A019007D100BF0120FEF713
:10213000BFF895F827000128F8D040F600070120E5
:10214000B5F80A80C4F2010785F82700FFF796FF6B
:10215000384610210022FEF7D3F940F28004062011
:10216000C2F200048DF809004FF0640B0DF1090173
:1021700002AA20460123CDF800B0FEF7A1FF3846A1
:1021800010210122FEF7BCF90120FEF791F8384634
:1021900010210022FEF7B4F902208DF80B000DF19A
:1021A0000B010DF10A0220460123CDF800B0FEF725
:1021B00087FF6889297800FB06A709290ED3380E06
:1021C0008DF80D0040F28000C2F200000DF10D010B
:1021D00003AA0123CDF800B0FEF772FF09EB0A0055
:1021E0004E46A8EB0A01404588BF0E46B9F1000FE4
:1021F00008BF0E4606EB0A0040F2800440454FEA55
:102200001740C2F2000488BF0E468DF80F000DF192
:102210000F010DF10E0220460123CDF800B0FEF7AC
:102220004FFF380A8DF811000DF1110104AA204664
:102230000123CDF800B0FEF743FF0DF113010DF1BE
:102240001202204601238DF81370CDF800B0FEF77E
:1022500037FF0199B2B220466423FEF747FE40F6ED
:102260000000C4F2010010210122FEF749F9FFF736
:1022700005FF0120FEF71CF8002085F8270005B0B7
:10228000BDE8F08F2DE9F04140F22817C2F20007B7
:102290001D463B6993422DD98046681E984228BF4F
:1022A0001D46A818984288BF9D1A78895943B2FBE9
:1022B000F0F3B1FBF0F103FB10265C184046214619
:1022C00032462B46FFF722FF7889801B2D1A012DFD
:1022D000B8BFBDE8F08108EB000600BF013430460E
:1022E000214600222B46FFF711FF78892D1A002D79
:1022F0000644F3DCBDE8F08190B0FEF71BF9002442
:102300000120CDE90B44CDE9094406900A904FF431
:10231000E0104FF4803102250F9006A8CDE9071494
:10232000CDE90D51FEF77CFA20B1EFF3108072B6C3
:10233000FEE700BF0F20CDE901054FF48060049057
:102340004FF4E060059001A802210394FEF788F99C
:1023500020B1EFF3108072B6FEE700BF40F60044F4
:10236000C4F20104FFF7AEF9FFF726FAFFF74AFAC5
:1023700040F27007C2F2000701253D70FFF792FBA3
:1023800078780F2860D840F20C084FF00009C2F2AC
:102390000008BE1D0BE000BF387879780130387036
:1023A000481CC1B2102987F8039078704CD220469F
:1023B0004FF480610122FEF7A3F83878FFF7DCFACA
:1023C00020464FF480610022FEF79AF8F878A7F8CB
:1023D0000490032803D9DFE7C8B20428DCD2B87818
:1023E000012188F8000020460122FEF789F839789B
:1023F000BA8840460323FFF745FF2046012100220B
:10240000FEF77EF8204602210122FEF779F839789E
:10241000BA8830460323FFF733FD2046022100220D
:10242000FEF76EF8404631460322FDF7CDFEF978FF
:102430000028D1D1B87801310130B870B888F9706E
:102440000330B880C8E700BFA4F58064002600BF51
:1024500020460121FEF74EF828B92046042101222A
:10246000FEF74EF8FD6020460221FEF743F80028F3
:10247000EED1204604210022FEF742F8FE60E7E795
:102480000102000000000000000001020304060732
:10249000080902030405060708090A0B0C0D0E0FB4
:1024A00010100000C82400080000002010000000E8
:1024B00028010008D8240008100000204007000070
:1024C00044010008000000000100000010000000AE
:0824D0000024F40000010200E9
:04000005080000ED02
:00000001FF
